{
  "_format": "hh-sol-artifact-1",
  "contractName": "BoringOwnableUpgradeableData",
  "sourceName": "infinit/libraries/BoringOwnableUpgradeable.sol",
  "abi": [
    {
      "inputs": [],
      "name": "owner",
      "outputs": [
        {
          "internalType": "address",
          "name": "",
          "type": "address"
        }
      ],
      "stateMutability": "view",
      "type": "function"
    },
    {
      "inputs": [],
      "name": "pendingOwner",
      "outputs": [
        {
          "internalType": "address",
          "name": "",
          "type": "address"
        }
      ],
      "stateMutability": "view",
      "type": "function"
    }
  ],
  "bytecode": "0x6080604052348015600e575f80fd5b5060a98061001b5f395ff3fe6080604052348015600e575f80fd5b50600436106030575f3560e01c80638da5cb5b146034578063e30c3978146061575b5f80fd5b5f546045906001600160a01b031681565b6040516001600160a01b03909116815260200160405180910390f35b6001546045906001600160a01b03168156fea26469706673582212206e029994f963408787afa70e9e5f9a2b69b539478e917066448e6f8d85abc5c664736f6c63430008180033",
  "linkReferences": {},
  "deployedLinkReferences": {}
}