{
  "_format": "hh-sol-artifact-1",
  "contractName": "InfinitERC20Burnable",
  "sourceName": "infinit/tokens/InfinitERC20Burnable.sol",
  "abi": [
    {
      "inputs": [
        {
          "internalType": "address",
          "name": "owner",
          "type": "address"
        },
        {
          "internalType": "string",
          "name": "name",
          "type": "string"
        },
        {
          "internalType": "string",
          "name": "symbol",
          "type": "string"
        },
        {
          "internalType": "uint256",
          "name": "maxSupply",
          "type": "uint256"
        },
        {
          "internalType": "uint256",
          "name": "initialSupply",
          "type": "uint256"
        }
      ],
      "stateMutability": "nonpayable",
      "type": "constructor"
    },
    {
      "inputs": [],
      "name": "ECDSAInvalidSignature",
      "type": "error"
    },
    {
      "inputs": [
        {
          "internalType": "uint256",
          "name": "length",
          "type": "uint256"
        }
      ],
      "name": "ECDSAInvalidSignatureLength",
      "type": "error"
    },
    {
      "inputs": [
        {
          "internalType": "bytes32",
          "name": "s",
          "type": "bytes32"
        }
      ],
      "name": "ECDSAInvalidSignatureS",
      "type": "error"
    },
    {
      "inputs": [
        {
          "internalType": "uint256",
          "name": "increasedSupply",
          "type": "uint256"
        },
        {
          "internalType": "uint256",
          "name": "cap",
          "type": "uint256"
        }
      ],
      "name": "ERC20ExceededCap",
      "type": "error"
    },
    {
      "inputs": [
        {
          "internalType": "address",
          "name": "spender",
          "type": "address"
        },
        {
          "internalType": "uint256",
          "name": "allowance",
          "type": "uint256"
        },
        {
          "internalType": "uint256",
          "name": "needed",
          "type": "uint256"
        }
      ],
      "name": "ERC20InsufficientAllowance",
      "type": "error"
    },
    {
      "inputs": [
        {
          "internalType": "address",
          "name": "sender",
          "type": "address"
        },
        {
          "internalType": "uint256",
          "name": "balance",
          "type": "uint256"
        },
        {
          "internalType": "uint256",
          "name": "needed",
          "type": "uint256"
        }
      ],
      "name": "ERC20InsufficientBalance",
      "type": "error"
    },
    {
      "inputs": [
        {
          "internalType": "address",
          "name": "approver",
          "type": "address"
        }
      ],
      "name": "ERC20InvalidApprover",
      "type": "error"
    },
    {
      "inputs": [
        {
          "internalType": "uint256",
          "name": "cap",
          "type": "uint256"
        }
      ],
      "name": "ERC20InvalidCap",
      "type": "error"
    },
    {
      "inputs": [
        {
          "internalType": "address",
          "name": "receiver",
          "type": "address"
        }
      ],
      "name": "ERC20InvalidReceiver",
      "type": "error"
    },
    {
      "inputs": [
        {
          "internalType": "address",
          "name": "sender",
          "type": "address"
        }
      ],
      "name": "ERC20InvalidSender",
      "type": "error"
    },
    {
      "inputs": [
        {
          "internalType": "address",
          "name": "spender",
          "type": "address"
        }
      ],
      "name": "ERC20InvalidSpender",
      "type": "error"
    },
    {
      "inputs": [
        {
          "internalType": "uint256",
          "name": "deadline",
          "type": "uint256"
        }
      ],
      "name": "ERC2612ExpiredSignature",
      "type": "error"
    },
    {
      "inputs": [
        {
          "internalType": "address",
          "name": "signer",
          "type": "address"
        },
        {
          "internalType": "address",
          "name": "owner",
          "type": "address"
        }
      ],
      "name": "ERC2612InvalidSigner",
      "type": "error"
    },
    {
      "inputs": [
        {
          "internalType": "address",
          "name": "account",
          "type": "address"
        },
        {
          "internalType": "uint256",
          "name": "currentNonce",
          "type": "uint256"
        }
      ],
      "name": "InvalidAccountNonce",
      "type": "error"
    },
    {
      "inputs": [],
      "name": "InvalidShortString",
      "type": "error"
    },
    {
      "inputs": [
        {
          "internalType": "address",
          "name": "owner",
          "type": "address"
        }
      ],
      "name": "OwnableInvalidOwner",
      "type": "error"
    },
    {
      "inputs": [
        {
          "internalType": "address",
          "name": "account",
          "type": "address"
        }
      ],
      "name": "OwnableUnauthorizedAccount",
      "type": "error"
    },
    {
      "inputs": [
        {
          "internalType": "string",
          "name": "str",
          "type": "string"
        }
      ],
      "name": "StringTooLong",
      "type": "error"
    },
    {
      "anonymous": false,
      "inputs": [
        {
          "indexed": true,
          "internalType": "address",
          "name": "owner",
          "type": "address"
        },
        {
          "indexed": true,
          "internalType": "address",
          "name": "spender",
          "type": "address"
        },
        {
          "indexed": false,
          "internalType": "uint256",
          "name": "value",
          "type": "uint256"
        }
      ],
      "name": "Approval",
      "type": "event"
    },
    {
      "anonymous": false,
      "inputs": [],
      "name": "EIP712DomainChanged",
      "type": "event"
    },
    {
      "anonymous": false,
      "inputs": [
        {
          "indexed": true,
          "internalType": "address",
          "name": "previousOwner",
          "type": "address"
        },
        {
          "indexed": true,
          "internalType": "address",
          "name": "newOwner",
          "type": "address"
        }
      ],
      "name": "OwnershipTransferred",
      "type": "event"
    },
    {
      "anonymous": false,
      "inputs": [
        {
          "indexed": true,
          "internalType": "address",
          "name": "from",
          "type": "address"
        },
        {
          "indexed": true,
          "internalType": "address",
          "name": "to",
          "type": "address"
        },
        {
          "indexed": false,
          "internalType": "uint256",
          "name": "value",
          "type": "uint256"
        }
      ],
      "name": "Transfer",
      "type": "event"
    },
    {
      "inputs": [],
      "name": "DOMAIN_SEPARATOR",
      "outputs": [
        {
          "internalType": "bytes32",
          "name": "",
          "type": "bytes32"
        }
      ],
      "stateMutability": "view",
      "type": "function"
    },
    {
      "inputs": [
        {
          "internalType": "address",
          "name": "owner",
          "type": "address"
        },
        {
          "internalType": "address",
          "name": "spender",
          "type": "address"
        }
      ],
      "name": "allowance",
      "outputs": [
        {
          "internalType": "uint256",
          "name": "",
          "type": "uint256"
        }
      ],
      "stateMutability": "view",
      "type": "function"
    },
    {
      "inputs": [
        {
          "internalType": "address",
          "name": "spender",
          "type": "address"
        },
        {
          "internalType": "uint256",
          "name": "value",
          "type": "uint256"
        }
      ],
      "name": "approve",
      "outputs": [
        {
          "internalType": "bool",
          "name": "",
          "type": "bool"
        }
      ],
      "stateMutability": "nonpayable",
      "type": "function"
    },
    {
      "inputs": [
        {
          "internalType": "address",
          "name": "account",
          "type": "address"
        }
      ],
      "name": "balanceOf",
      "outputs": [
        {
          "internalType": "uint256",
          "name": "",
          "type": "uint256"
        }
      ],
      "stateMutability": "view",
      "type": "function"
    },
    {
      "inputs": [
        {
          "internalType": "uint256",
          "name": "value",
          "type": "uint256"
        }
      ],
      "name": "burn",
      "outputs": [],
      "stateMutability": "nonpayable",
      "type": "function"
    },
    {
      "inputs": [
        {
          "internalType": "address",
          "name": "account",
          "type": "address"
        },
        {
          "internalType": "uint256",
          "name": "value",
          "type": "uint256"
        }
      ],
      "name": "burnFrom",
      "outputs": [],
      "stateMutability": "nonpayable",
      "type": "function"
    },
    {
      "inputs": [],
      "name": "cap",
      "outputs": [
        {
          "internalType": "uint256",
          "name": "",
          "type": "uint256"
        }
      ],
      "stateMutability": "view",
      "type": "function"
    },
    {
      "inputs": [],
      "name": "decimals",
      "outputs": [
        {
          "internalType": "uint8",
          "name": "",
          "type": "uint8"
        }
      ],
      "stateMutability": "view",
      "type": "function"
    },
    {
      "inputs": [],
      "name": "eip712Domain",
      "outputs": [
        {
          "internalType": "bytes1",
          "name": "fields",
          "type": "bytes1"
        },
        {
          "internalType": "string",
          "name": "name",
          "type": "string"
        },
        {
          "internalType": "string",
          "name": "version",
          "type": "string"
        },
        {
          "internalType": "uint256",
          "name": "chainId",
          "type": "uint256"
        },
        {
          "internalType": "address",
          "name": "verifyingContract",
          "type": "address"
        },
        {
          "internalType": "bytes32",
          "name": "salt",
          "type": "bytes32"
        },
        {
          "internalType": "uint256[]",
          "name": "extensions",
          "type": "uint256[]"
        }
      ],
      "stateMutability": "view",
      "type": "function"
    },
    {
      "inputs": [
        {
          "internalType": "address",
          "name": "account",
          "type": "address"
        },
        {
          "internalType": "uint256",
          "name": "amount",
          "type": "uint256"
        }
      ],
      "name": "mint",
      "outputs": [
        {
          "internalType": "bool",
          "name": "",
          "type": "bool"
        }
      ],
      "stateMutability": "nonpayable",
      "type": "function"
    },
    {
      "inputs": [],
      "name": "name",
      "outputs": [
        {
          "internalType": "string",
          "name": "",
          "type": "string"
        }
      ],
      "stateMutability": "view",
      "type": "function"
    },
    {
      "inputs": [
        {
          "internalType": "address",
          "name": "owner",
          "type": "address"
        }
      ],
      "name": "nonces",
      "outputs": [
        {
          "internalType": "uint256",
          "name": "",
          "type": "uint256"
        }
      ],
      "stateMutability": "view",
      "type": "function"
    },
    {
      "inputs": [],
      "name": "owner",
      "outputs": [
        {
          "internalType": "address",
          "name": "",
          "type": "address"
        }
      ],
      "stateMutability": "view",
      "type": "function"
    },
    {
      "inputs": [
        {
          "internalType": "address",
          "name": "owner",
          "type": "address"
        },
        {
          "internalType": "address",
          "name": "spender",
          "type": "address"
        },
        {
          "internalType": "uint256",
          "name": "value",
          "type": "uint256"
        },
        {
          "internalType": "uint256",
          "name": "deadline",
          "type": "uint256"
        },
        {
          "internalType": "uint8",
          "name": "v",
          "type": "uint8"
        },
        {
          "internalType": "bytes32",
          "name": "r",
          "type": "bytes32"
        },
        {
          "internalType": "bytes32",
          "name": "s",
          "type": "bytes32"
        }
      ],
      "name": "permit",
      "outputs": [],
      "stateMutability": "nonpayable",
      "type": "function"
    },
    {
      "inputs": [],
      "name": "renounceOwnership",
      "outputs": [],
      "stateMutability": "nonpayable",
      "type": "function"
    },
    {
      "inputs": [],
      "name": "symbol",
      "outputs": [
        {
          "internalType": "string",
          "name": "",
          "type": "string"
        }
      ],
      "stateMutability": "view",
      "type": "function"
    },
    {
      "inputs": [],
      "name": "totalSupply",
      "outputs": [
        {
          "internalType": "uint256",
          "name": "",
          "type": "uint256"
        }
      ],
      "stateMutability": "view",
      "type": "function"
    },
    {
      "inputs": [
        {
          "internalType": "address",
          "name": "to",
          "type": "address"
        },
        {
          "internalType": "uint256",
          "name": "value",
          "type": "uint256"
        }
      ],
      "name": "transfer",
      "outputs": [
        {
          "internalType": "bool",
          "name": "",
          "type": "bool"
        }
      ],
      "stateMutability": "nonpayable",
      "type": "function"
    },
    {
      "inputs": [
        {
          "internalType": "address",
          "name": "from",
          "type": "address"
        },
        {
          "internalType": "address",
          "name": "to",
          "type": "address"
        },
        {
          "internalType": "uint256",
          "name": "value",
          "type": "uint256"
        }
      ],
      "name": "transferFrom",
      "outputs": [
        {
          "internalType": "bool",
          "name": "",
          "type": "bool"
        }
      ],
      "stateMutability": "nonpayable",
      "type": "function"
    },
    {
      "inputs": [
        {
          "internalType": "address",
          "name": "newOwner",
          "type": "address"
        }
      ],
      "name": "transferOwnership",
      "outputs": [],
      "stateMutability": "nonpayable",
      "type": "function"
    }
  ],
  "bytecode": "0x61018060405234801562000011575f80fd5b506040516200198d3803806200198d83398101604081905262000034916200052f565b84848484848380604051806040016040528060018152602001603160f81b8152508487878a5f6001600160a01b0316816001600160a01b0316036200009357604051631e4fbdf760e01b81525f60048201526024015b60405180910390fd5b6200009e81620001b9565b506004620000ad838262000647565b506005620000bc828262000647565b505050805f03620000e35760405163392e1e2760e01b81525f60048201526024016200008a565b608052620000f382600662000208565b610140526200010481600762000208565b61016052815160208084019190912061010052815190820120610120524660c052620001936101005161012051604080517f8b73c3c69bb8fe3d512ecc4cf759cc79239f7b179b0ffacaa9a75d522b39400f60208201529081019290925260608201524660808201523060a08201525f9060c00160405160208183030381529060405280519060200120905090565b60a05250503060e05250620001a9858262000240565b505050505050505050506200078b565b5f80546001600160a01b038381166001600160a01b0319831681178455604051919092169283917f8be0079c531659141344cd1fd0a4f28419497f9722a3daafe3b4186f6b6457e09190a35050565b5f60208351101562000227576200021f836200027c565b90506200023a565b8162000234848262000647565b5060ff90505b92915050565b6001600160a01b0382166200026b5760405163ec442f0560e01b81525f60048201526024016200008a565b620002785f8383620002be565b5050565b5f80829050601f81511115620002a9578260405163305a27a960e01b81526004016200008a919062000713565b8051620002b68262000747565b179392505050565b620002cb838383620002d0565b505050565b620002dd8383836200033a565b6001600160a01b038316620002cb575f620002f760805190565b90505f6200030460035490565b905081811115620003335760405163279e7e1560e21b815260048101829052602481018390526044016200008a565b5050505050565b6001600160a01b03831662000368578060035f8282546200035c91906200076b565b90915550620003da9050565b6001600160a01b0383165f9081526001602052604090205481811015620003bc5760405163391434e360e21b81526001600160a01b038516600482015260248101829052604481018390526064016200008a565b6001600160a01b0384165f9081526001602052604090209082900390555b6001600160a01b038216620003f85760038054829003905562000416565b6001600160a01b0382165f9081526001602052604090208054820190555b816001600160a01b0316836001600160a01b03167fddf252ad1be2c89b69c2b068fc378daa952ba7f163c4a11628f55a4df523b3ef836040516200045c91815260200190565b60405180910390a3505050565b634e487b7160e01b5f52604160045260245ffd5b5f5b83811015620004995781810151838201526020016200047f565b50505f910152565b5f82601f830112620004b1575f80fd5b81516001600160401b0380821115620004ce57620004ce62000469565b604051601f8301601f19908116603f01168101908282118183101715620004f957620004f962000469565b8160405283815286602085880101111562000512575f80fd5b620005258460208301602089016200047d565b9695505050505050565b5f805f805f60a0868803121562000544575f80fd5b85516001600160a01b03811681146200055b575f80fd5b60208701519095506001600160401b038082111562000578575f80fd5b6200058689838a01620004a1565b955060408801519150808211156200059c575f80fd5b50620005ab88828901620004a1565b606088015160809098015196999598509695949350505050565b600181811c90821680620005da57607f821691505b602082108103620005f957634e487b7160e01b5f52602260045260245ffd5b50919050565b601f821115620002cb57805f5260205f20601f840160051c81016020851015620006265750805b601f840160051c820191505b8181101562000333575f815560010162000632565b81516001600160401b0381111562000663576200066362000469565b6200067b81620006748454620005c5565b84620005ff565b602080601f831160018114620006b1575f8415620006995750858301515b5f19600386901b1c1916600185901b1785556200070b565b5f85815260208120601f198616915b82811015620006e157888601518255948401946001909101908401620006c0565b5085821015620006ff57878501515f19600388901b60f8161c191681555b505060018460011b0185555b505050505050565b602081525f8251806020840152620007338160408501602087016200047d565b601f01601f19169190910160400192915050565b80516020808301519190811015620005f9575f1960209190910360031b1b16919050565b808201808211156200023a57634e487b7160e01b5f52601160045260245ffd5b60805160a05160c05160e0516101005161012051610140516101605161119f620007ee5f395f61094301525f61091601525f6107dc01525f6107b401525f61070f01525f61073901525f61076301525f81816101a20152610ce5015261119f5ff3fe608060405234801561000f575f80fd5b5060043610610127575f3560e01c8063715018a6116100a957806395d89b411161006e57806395d89b4114610281578063a9059cbb14610289578063d505accf1461029c578063dd62ed3e146102af578063f2fde38b146102e7575f80fd5b8063715018a61461021e57806379cc6790146102265780637ecebe001461023957806384b0196e1461024c5780638da5cb5b14610267575f80fd5b8063355274ea116100ef578063355274ea146101a05780633644e515146101c657806340c10f19146101ce57806342966c68146101e157806370a08231146101f6575f80fd5b806306fdde031461012b578063095ea7b31461014957806318160ddd1461016c57806323b872dd1461017e578063313ce56714610191575b5f80fd5b6101336102fa565b6040516101409190610f04565b60405180910390f35b61015c610157366004610f38565b61038a565b6040519015158152602001610140565b6003545b604051908152602001610140565b61015c61018c366004610f60565b6103a3565b60405160128152602001610140565b7f0000000000000000000000000000000000000000000000000000000000000000610170565b6101706103c6565b61015c6101dc366004610f38565b6103d4565b6101f46101ef366004610f99565b6103f0565b005b610170610204366004610fb0565b6001600160a01b03165f9081526001602052604090205490565b6101f46103fd565b6101f4610234366004610f38565b610410565b610170610247366004610fb0565b610429565b610254610446565b6040516101409796959493929190610fc9565b5f546040516001600160a01b039091168152602001610140565b610133610488565b61015c610297366004610f38565b610497565b6101f46102aa366004611060565b6104a4565b6101706102bd3660046110cd565b6001600160a01b039182165f90815260026020908152604080832093909416825291909152205490565b6101f46102f5366004610fb0565b6105df565b606060048054610309906110fe565b80601f0160208091040260200160405190810160405280929190818152602001828054610335906110fe565b80156103805780601f1061035757610100808354040283529160200191610380565b820191905f5260205f20905b81548152906001019060200180831161036357829003601f168201915b5050505050905090565b5f33610397818585610619565b60019150505b92915050565b5f336103b085828561062b565b6103bb8585856106a6565b506001949350505050565b5f6103cf610703565b905090565b5f6103dd61082c565b6103e78383610858565b50600192915050565b6103fa338261088c565b50565b61040561082c565b61040e5f6108c0565b565b61041b82338361062b565b610425828261088c565b5050565b6001600160a01b0381165f9081526008602052604081205461039d565b5f6060805f805f606061045761090f565b61045f61093c565b604080515f80825260208201909252600f60f81b9b939a50919850469750309650945092509050565b606060058054610309906110fe565b5f336103978185856106a6565b834211156104cd5760405163313c898160e11b8152600481018590526024015b60405180910390fd5b5f7f6e71edae12b1b97f4d1f60370fef10105fa2faae0126114a169c64845d6126c98888886105188c6001600160a01b03165f90815260086020526040902080546001810190915590565b6040805160208101969096526001600160a01b0394851690860152929091166060840152608083015260a082015260c0810186905260e0016040516020818303038152906040528051906020012090505f61057282610969565b90505f61058182878787610995565b9050896001600160a01b0316816001600160a01b0316146105c8576040516325c0072360e11b81526001600160a01b0380831660048301528b1660248201526044016104c4565b6105d38a8a8a610619565b50505050505050505050565b6105e761082c565b6001600160a01b03811661061057604051631e4fbdf760e01b81525f60048201526024016104c4565b6103fa816108c0565b61062683838360016109c1565b505050565b6001600160a01b038381165f908152600260209081526040808320938616835292905220545f1981146106a0578181101561069257604051637dc7a0d960e11b81526001600160a01b038416600482015260248101829052604481018390526064016104c4565b6106a084848484035f6109c1565b50505050565b6001600160a01b0383166106cf57604051634b637e8f60e11b81525f60048201526024016104c4565b6001600160a01b0382166106f85760405163ec442f0560e01b81525f60048201526024016104c4565b610626838383610a93565b5f306001600160a01b037f00000000000000000000000000000000000000000000000000000000000000001614801561075b57507f000000000000000000000000000000000000000000000000000000000000000046145b1561078557507f000000000000000000000000000000000000000000000000000000000000000090565b6103cf604080517f8b73c3c69bb8fe3d512ecc4cf759cc79239f7b179b0ffacaa9a75d522b39400f60208201527f0000000000000000000000000000000000000000000000000000000000000000918101919091527f000000000000000000000000000000000000000000000000000000000000000060608201524660808201523060a08201525f9060c00160405160208183030381529060405280519060200120905090565b5f546001600160a01b0316331461040e5760405163118cdaa760e01b81523360048201526024016104c4565b6001600160a01b0382166108815760405163ec442f0560e01b81525f60048201526024016104c4565b6104255f8383610a93565b6001600160a01b0382166108b557604051634b637e8f60e11b81525f60048201526024016104c4565b610425825f83610a93565b5f80546001600160a01b038381166001600160a01b0319831681178455604051919092169283917f8be0079c531659141344cd1fd0a4f28419497f9722a3daafe3b4186f6b6457e09190a35050565b60606103cf7f00000000000000000000000000000000000000000000000000000000000000006006610a9e565b60606103cf7f00000000000000000000000000000000000000000000000000000000000000006007610a9e565b5f61039d610975610703565b8360405161190160f01b8152600281019290925260228201526042902090565b5f805f806109a588888888610b47565b9250925092506109b58282610c0f565b50909695505050505050565b6001600160a01b0384166109ea5760405163e602df0560e01b81525f60048201526024016104c4565b6001600160a01b038316610a1357604051634a1406b160e11b81525f60048201526024016104c4565b6001600160a01b038085165f90815260026020908152604080832093871683529290522082905580156106a057826001600160a01b0316846001600160a01b03167f8c5be1e5ebec7d5bd14f71427d1e84f3dd0314c0f7b2291e5b200ac8c7c3b92584604051610a8591815260200190565b60405180910390a350505050565b610626838383610cc7565b606060ff8314610ab857610ab183610d37565b905061039d565b818054610ac4906110fe565b80601f0160208091040260200160405190810160405280929190818152602001828054610af0906110fe565b8015610b3b5780601f10610b1257610100808354040283529160200191610b3b565b820191905f5260205f20905b815481529060010190602001808311610b1e57829003601f168201915b5050505050905061039d565b5f80807f7fffffffffffffffffffffffffffffff5d576e7357a4501ddfe92f46681b20a0841115610b8057505f91506003905082610c05565b604080515f808252602082018084528a905260ff891692820192909252606081018790526080810186905260019060a0016020604051602081039080840390855afa158015610bd1573d5f803e3d5ffd5b5050604051601f1901519150506001600160a01b038116610bfc57505f925060019150829050610c05565b92505f91508190505b9450945094915050565b5f826003811115610c2257610c22611136565b03610c2b575050565b6001826003811115610c3f57610c3f611136565b03610c5d5760405163f645eedf60e01b815260040160405180910390fd5b6002826003811115610c7157610c71611136565b03610c925760405163fce698f760e01b8152600481018290526024016104c4565b6003826003811115610ca657610ca6611136565b03610425576040516335e2f38360e21b8152600481018290526024016104c4565b610cd2838383610d74565b6001600160a01b038316610626576003547f00000000000000000000000000000000000000000000000000000000000000009081811115610d305760405163279e7e1560e21b815260048101829052602481018390526044016104c4565b5050505050565b60605f610d4383610e9a565b6040805160208082528183019092529192505f91906020820181803683375050509182525060208101929092525090565b6001600160a01b038316610d9e578060035f828254610d93919061114a565b90915550610e0e9050565b6001600160a01b0383165f9081526001602052604090205481811015610df05760405163391434e360e21b81526001600160a01b038516600482015260248101829052604481018390526064016104c4565b6001600160a01b0384165f9081526001602052604090209082900390555b6001600160a01b038216610e2a57600380548290039055610e48565b6001600160a01b0382165f9081526001602052604090208054820190555b816001600160a01b0316836001600160a01b03167fddf252ad1be2c89b69c2b068fc378daa952ba7f163c4a11628f55a4df523b3ef83604051610e8d91815260200190565b60405180910390a3505050565b5f60ff8216601f81111561039d57604051632cd44ac360e21b815260040160405180910390fd5b5f81518084525f5b81811015610ee557602081850181015186830182015201610ec9565b505f602082860101526020601f19601f83011685010191505092915050565b602081525f610f166020830184610ec1565b9392505050565b80356001600160a01b0381168114610f33575f80fd5b919050565b5f8060408385031215610f49575f80fd5b610f5283610f1d565b946020939093013593505050565b5f805f60608486031215610f72575f80fd5b610f7b84610f1d565b9250610f8960208501610f1d565b9150604084013590509250925092565b5f60208284031215610fa9575f80fd5b5035919050565b5f60208284031215610fc0575f80fd5b610f1682610f1d565b60ff60f81b881681525f602060e06020840152610fe960e084018a610ec1565b8381036040850152610ffb818a610ec1565b606085018990526001600160a01b038816608086015260a0850187905284810360c0860152855180825260208088019350909101905f5b8181101561104e57835183529284019291840191600101611032565b50909c9b505050505050505050505050565b5f805f805f805f60e0888a031215611076575f80fd5b61107f88610f1d565b965061108d60208901610f1d565b95506040880135945060608801359350608088013560ff811681146110b0575f80fd5b9699959850939692959460a0840135945060c09093013592915050565b5f80604083850312156110de575f80fd5b6110e783610f1d565b91506110f560208401610f1d565b90509250929050565b600181811c9082168061111257607f821691505b60208210810361113057634e487b7160e01b5f52602260045260245ffd5b50919050565b634e487b7160e01b5f52602160045260245ffd5b8082018082111561039d57634e487b7160e01b5f52601160045260245ffdfea2646970667358221220015a26be7c21e785e16815f103646ae6a57d80fe283c6c142ce29a8cb812784b64736f6c63430008180033",
  "linkReferences": {},
  "deployedLinkReferences": {}
}