{
  "_format": "hh-sol-artifact-1",
  "contractName": "TokenDistributor",
  "sourceName": "infinit/airdrop/TokenDistributor.sol",
  "abi": [
    {
      "inputs": [
        {
          "internalType": "address",
          "name": "_owner",
          "type": "address"
        },
        {
          "internalType": "address",
          "name": "_token",
          "type": "address"
        }
      ],
      "stateMutability": "nonpayable",
      "type": "constructor"
    },
    {
      "inputs": [
        {
          "internalType": "address",
          "name": "target",
          "type": "address"
        }
      ],
      "name": "AddressEmptyCode",
      "type": "error"
    },
    {
      "inputs": [
        {
          "internalType": "address",
          "name": "account",
          "type": "address"
        }
      ],
      "name": "AddressInsufficientBalance",
      "type": "error"
    },
    {
      "inputs": [],
      "name": "FailedInnerCall",
      "type": "error"
    },
    {
      "inputs": [
        {
          "internalType": "address",
          "name": "owner",
          "type": "address"
        }
      ],
      "name": "OwnableInvalidOwner",
      "type": "error"
    },
    {
      "inputs": [
        {
          "internalType": "address",
          "name": "account",
          "type": "address"
        }
      ],
      "name": "OwnableUnauthorizedAccount",
      "type": "error"
    },
    {
      "inputs": [
        {
          "internalType": "address",
          "name": "token",
          "type": "address"
        }
      ],
      "name": "SafeERC20FailedOperation",
      "type": "error"
    },
    {
      "anonymous": false,
      "inputs": [
        {
          "indexed": true,
          "internalType": "address",
          "name": "recipient",
          "type": "address"
        },
        {
          "indexed": false,
          "internalType": "uint256",
          "name": "amount",
          "type": "uint256"
        }
      ],
      "name": "Claimed",
      "type": "event"
    },
    {
      "anonymous": false,
      "inputs": [
        {
          "indexed": false,
          "internalType": "uint256",
          "name": "amount",
          "type": "uint256"
        }
      ],
      "name": "Deposited",
      "type": "event"
    },
    {
      "anonymous": false,
      "inputs": [
        {
          "indexed": true,
          "internalType": "address",
          "name": "previousOwner",
          "type": "address"
        },
        {
          "indexed": true,
          "internalType": "address",
          "name": "newOwner",
          "type": "address"
        }
      ],
      "name": "OwnershipTransferred",
      "type": "event"
    },
    {
      "anonymous": false,
      "inputs": [
        {
          "indexed": true,
          "internalType": "address",
          "name": "token",
          "type": "address"
        },
        {
          "indexed": true,
          "internalType": "address",
          "name": "to",
          "type": "address"
        },
        {
          "indexed": false,
          "internalType": "uint256",
          "name": "amount",
          "type": "uint256"
        }
      ],
      "name": "Swept",
      "type": "event"
    },
    {
      "anonymous": false,
      "inputs": [
        {
          "indexed": true,
          "internalType": "address",
          "name": "recipient",
          "type": "address"
        },
        {
          "indexed": false,
          "internalType": "uint256",
          "name": "amount",
          "type": "uint256"
        }
      ],
      "name": "TotalAccruedAmountUpdated",
      "type": "event"
    },
    {
      "inputs": [],
      "name": "claim",
      "outputs": [
        {
          "internalType": "uint256",
          "name": "amount",
          "type": "uint256"
        }
      ],
      "stateMutability": "nonpayable",
      "type": "function"
    },
    {
      "inputs": [
        {
          "internalType": "address",
          "name": "",
          "type": "address"
        }
      ],
      "name": "claimedAmounts",
      "outputs": [
        {
          "internalType": "uint256",
          "name": "",
          "type": "uint256"
        }
      ],
      "stateMutability": "view",
      "type": "function"
    },
    {
      "inputs": [
        {
          "internalType": "uint256",
          "name": "amount",
          "type": "uint256"
        }
      ],
      "name": "deposit",
      "outputs": [],
      "stateMutability": "nonpayable",
      "type": "function"
    },
    {
      "inputs": [],
      "name": "owner",
      "outputs": [
        {
          "internalType": "address",
          "name": "",
          "type": "address"
        }
      ],
      "stateMutability": "view",
      "type": "function"
    },
    {
      "inputs": [],
      "name": "renounceOwnership",
      "outputs": [],
      "stateMutability": "nonpayable",
      "type": "function"
    },
    {
      "inputs": [
        {
          "internalType": "address",
          "name": "token",
          "type": "address"
        },
        {
          "internalType": "uint256",
          "name": "amount",
          "type": "uint256"
        }
      ],
      "name": "sweep",
      "outputs": [],
      "stateMutability": "nonpayable",
      "type": "function"
    },
    {
      "inputs": [],
      "name": "token",
      "outputs": [
        {
          "internalType": "address",
          "name": "",
          "type": "address"
        }
      ],
      "stateMutability": "view",
      "type": "function"
    },
    {
      "inputs": [
        {
          "internalType": "address",
          "name": "",
          "type": "address"
        }
      ],
      "name": "totalAccruedAmounts",
      "outputs": [
        {
          "internalType": "uint256",
          "name": "",
          "type": "uint256"
        }
      ],
      "stateMutability": "view",
      "type": "function"
    },
    {
      "inputs": [
        {
          "internalType": "address",
          "name": "newOwner",
          "type": "address"
        }
      ],
      "name": "transferOwnership",
      "outputs": [],
      "stateMutability": "nonpayable",
      "type": "function"
    },
    {
      "inputs": [
        {
          "internalType": "address[]",
          "name": "recipients",
          "type": "address[]"
        },
        {
          "internalType": "uint256[]",
          "name": "newTotalAccruedAmounts",
          "type": "uint256[]"
        }
      ],
      "name": "updateTotalAccruedAmounts",
      "outputs": [],
      "stateMutability": "nonpayable",
      "type": "function"
    }
  ],
  "bytecode": "0x60a060405234801561000f575f80fd5b50604051610ab0380380610ab083398101604081905261002e916100e4565b81806001600160a01b03811661005d57604051631e4fbdf760e01b81525f600482015260240160405180910390fd5b6100668161007a565b50506001600160a01b031660805250610115565b5f80546001600160a01b038381166001600160a01b0319831681178455604051919092169283917f8be0079c531659141344cd1fd0a4f28419497f9722a3daafe3b4186f6b6457e09190a35050565b80516001600160a01b03811681146100df575f80fd5b919050565b5f80604083850312156100f5575f80fd5b6100fe836100c9565b915061010c602084016100c9565b90509250929050565b60805161097561013b5f395f81816101770152818161035e015261044f01526109755ff3fe608060405234801561000f575f80fd5b506004361061009b575f3560e01c8063715018a611610063578063715018a6146101205780638da5cb5b14610128578063b6b55f251461014c578063f2fde38b1461015f578063fc0c546a14610172575f80fd5b8063406d09fc1461009f5780634e71d92d146100b457806353109fc6146100cf5780636ea056a9146100ee57806371417b3214610101575b5f80fd5b6100b26100ad3660046107e7565b610199565b005b6100bc6102dd565b6040519081526020015b60405180910390f35b6100bc6100dd366004610869565b60016020525f908152604090205481565b6100b26100fc366004610882565b6103c7565b6100bc61010f366004610869565b60026020525f908152604090205481565b6100b2610427565b5f546001600160a01b03165b6040516001600160a01b0390911681526020016100c6565b6100b261015a3660046108aa565b61043a565b6100b261016d366004610869565b6104ad565b6101347f000000000000000000000000000000000000000000000000000000000000000081565b6101a16104ea565b8281146101e75760405162461bcd60e51b815260206004820152600f60248201526e496e76616c6964206c656e6774687360881b60448201526064015b60405180910390fd5b5f5b838110156102d657828282818110610203576102036108c1565b9050602002013560015f87878581811061021f5761021f6108c1565b90506020020160208101906102349190610869565b6001600160a01b0316815260208101919091526040015f205584848281811061025f5761025f6108c1565b90506020020160208101906102749190610869565b6001600160a01b03167f490953065a95d656b665625e14e4637d257afd95238e5f2059d547baff911bd48484848181106102b0576102b06108c1565b905060200201356040516102c691815260200190565b60405180910390a26001016101e9565b5050505050565b335f90815260016020908152604080832054600290925282205461030181836108d5565b92505f83116103475760405162461bcd60e51b81526020600482015260126024820152714e6f20746f6b656e7320746f20636c61696d60701b60448201526064016101de565b335f81815260026020526040902083905561038d907f00000000000000000000000000000000000000000000000000000000000000006001600160a01b03169085610516565b60405183815233907fd8138f8a3f377c5259ca548e70e4c2de94f129f5a11036a15b69513cba2b426a9060200160405180910390a2505090565b6103cf6104ea565b6103e36001600160a01b0383163383610516565b60405181815233906001600160a01b038416907f7b09c29f9106defeccc9ac3b823f3aad0b470d120e5df7aed033b5c43a4bf7189060200160405180910390a35050565b61042f6104ea565b6104385f61057a565b565b6104426104ea565b6104776001600160a01b037f0000000000000000000000000000000000000000000000000000000000000000163330846105c9565b6040518181527f2a89b2e3d580398d6dc2db5e0f336b52602bbaa51afa9bb5cdf59239cf0d2bea9060200160405180910390a150565b6104b56104ea565b6001600160a01b0381166104de57604051631e4fbdf760e01b81525f60048201526024016101de565b6104e78161057a565b50565b5f546001600160a01b031633146104385760405163118cdaa760e01b81523360048201526024016101de565b6040516001600160a01b0383811660248301526044820183905261057591859182169063a9059cbb906064015b604051602081830303815290604052915060e01b6020820180516001600160e01b038381831617835250505050610608565b505050565b5f80546001600160a01b038381166001600160a01b0319831681178455604051919092169283917f8be0079c531659141344cd1fd0a4f28419497f9722a3daafe3b4186f6b6457e09190a35050565b6040516001600160a01b0384811660248301528381166044830152606482018390526106029186918216906323b872dd90608401610543565b50505050565b5f61061c6001600160a01b03841683610669565b905080515f1415801561064057508080602001905181019061063e91906108f4565b155b1561057557604051635274afe760e01b81526001600160a01b03841660048201526024016101de565b606061067683835f61067f565b90505b92915050565b6060814710156106a45760405163cd78605960e01b81523060048201526024016101de565b5f80856001600160a01b031684866040516106bf9190610913565b5f6040518083038185875af1925050503d805f81146106f9576040519150601f19603f3d011682016040523d82523d5f602084013e6106fe565b606091505b509150915061070e86838361071a565b925050505b9392505050565b60608261072f5761072a82610776565b610713565b815115801561074657506001600160a01b0384163b155b1561076f57604051639996b31560e01b81526001600160a01b03851660048201526024016101de565b5080610713565b8051156107865780518082602001fd5b604051630a12f52160e11b815260040160405180910390fd5b5f8083601f8401126107af575f80fd5b50813567ffffffffffffffff8111156107c6575f80fd5b6020830191508360208260051b85010111156107e0575f80fd5b9250929050565b5f805f80604085870312156107fa575f80fd5b843567ffffffffffffffff80821115610811575f80fd5b61081d8883890161079f565b90965094506020870135915080821115610835575f80fd5b506108428782880161079f565b95989497509550505050565b80356001600160a01b0381168114610864575f80fd5b919050565b5f60208284031215610879575f80fd5b6106768261084e565b5f8060408385031215610893575f80fd5b61089c8361084e565b946020939093013593505050565b5f602082840312156108ba575f80fd5b5035919050565b634e487b7160e01b5f52603260045260245ffd5b8181038181111561067957634e487b7160e01b5f52601160045260245ffd5b5f60208284031215610904575f80fd5b81518015158114610713575f80fd5b5f82515f5b818110156109325760208186018101518583015201610918565b505f92019182525091905056fea26469706673582212203e257f28e426693133c246ed0f7fd13d352fbe6ad4aefd9134db8a5bbbc8f75764736f6c63430008180033",
  "linkReferences": {},
  "deployedLinkReferences": {}
}