{
  "_format": "hh-sol-artifact-1",
  "contractName": "SweepTokenOwnable",
  "sourceName": "infinit/airdrop/SweepTokenOwnable.sol",
  "abi": [
    {
      "inputs": [
        {
          "internalType": "address",
          "name": "owner",
          "type": "address"
        }
      ],
      "stateMutability": "nonpayable",
      "type": "constructor"
    },
    {
      "inputs": [
        {
          "internalType": "address",
          "name": "target",
          "type": "address"
        }
      ],
      "name": "AddressEmptyCode",
      "type": "error"
    },
    {
      "inputs": [
        {
          "internalType": "address",
          "name": "account",
          "type": "address"
        }
      ],
      "name": "AddressInsufficientBalance",
      "type": "error"
    },
    {
      "inputs": [],
      "name": "FailedInnerCall",
      "type": "error"
    },
    {
      "inputs": [
        {
          "internalType": "address",
          "name": "owner",
          "type": "address"
        }
      ],
      "name": "OwnableInvalidOwner",
      "type": "error"
    },
    {
      "inputs": [
        {
          "internalType": "address",
          "name": "account",
          "type": "address"
        }
      ],
      "name": "OwnableUnauthorizedAccount",
      "type": "error"
    },
    {
      "inputs": [
        {
          "internalType": "address",
          "name": "token",
          "type": "address"
        }
      ],
      "name": "SafeERC20FailedOperation",
      "type": "error"
    },
    {
      "anonymous": false,
      "inputs": [
        {
          "indexed": true,
          "internalType": "address",
          "name": "previousOwner",
          "type": "address"
        },
        {
          "indexed": true,
          "internalType": "address",
          "name": "newOwner",
          "type": "address"
        }
      ],
      "name": "OwnershipTransferred",
      "type": "event"
    },
    {
      "anonymous": false,
      "inputs": [
        {
          "indexed": true,
          "internalType": "address",
          "name": "token",
          "type": "address"
        },
        {
          "indexed": true,
          "internalType": "address",
          "name": "to",
          "type": "address"
        },
        {
          "indexed": false,
          "internalType": "uint256",
          "name": "amount",
          "type": "uint256"
        }
      ],
      "name": "Swept",
      "type": "event"
    },
    {
      "inputs": [],
      "name": "owner",
      "outputs": [
        {
          "internalType": "address",
          "name": "",
          "type": "address"
        }
      ],
      "stateMutability": "view",
      "type": "function"
    },
    {
      "inputs": [],
      "name": "renounceOwnership",
      "outputs": [],
      "stateMutability": "nonpayable",
      "type": "function"
    },
    {
      "inputs": [
        {
          "internalType": "address",
          "name": "token",
          "type": "address"
        },
        {
          "internalType": "uint256",
          "name": "amount",
          "type": "uint256"
        }
      ],
      "name": "sweep",
      "outputs": [],
      "stateMutability": "nonpayable",
      "type": "function"
    },
    {
      "inputs": [
        {
          "internalType": "address",
          "name": "newOwner",
          "type": "address"
        }
      ],
      "name": "transferOwnership",
      "outputs": [],
      "stateMutability": "nonpayable",
      "type": "function"
    }
  ],
  "bytecode": "0x608060405234801561000f575f80fd5b5060405161058838038061058883398101604081905261002e916100bb565b806001600160a01b03811661005c57604051631e4fbdf760e01b81525f600482015260240160405180910390fd5b6100658161006c565b50506100e8565b5f80546001600160a01b038381166001600160a01b0319831681178455604051919092169283917f8be0079c531659141344cd1fd0a4f28419497f9722a3daafe3b4186f6b6457e09190a35050565b5f602082840312156100cb575f80fd5b81516001600160a01b03811681146100e1575f80fd5b9392505050565b610493806100f55f395ff3fe608060405234801561000f575f80fd5b506004361061004a575f3560e01c80636ea056a91461004e578063715018a6146100635780638da5cb5b1461006b578063f2fde38b14610089575b5f80fd5b61006161005c3660046103d1565b61009c565b005b6100616100fc565b5f54604080516001600160a01b039092168252519081900360200190f35b6100616100973660046103f9565b61010f565b6100a4610151565b6100b86001600160a01b038316338361017d565b60405181815233906001600160a01b038416907f7b09c29f9106defeccc9ac3b823f3aad0b470d120e5df7aed033b5c43a4bf7189060200160405180910390a35050565b610104610151565b61010d5f6101d4565b565b610117610151565b6001600160a01b03811661014557604051631e4fbdf760e01b81525f60048201526024015b60405180910390fd5b61014e816101d4565b50565b5f546001600160a01b0316331461010d5760405163118cdaa760e01b815233600482015260240161013c565b604080516001600160a01b038416602482015260448082018490528251808303909101815260649091019091526020810180516001600160e01b031663a9059cbb60e01b1790526101cf908490610223565b505050565b5f80546001600160a01b038381166001600160a01b0319831681178455604051919092169283917f8be0079c531659141344cd1fd0a4f28419497f9722a3daafe3b4186f6b6457e09190a35050565b5f6102376001600160a01b03841683610284565b905080515f1415801561025b5750808060200190518101906102599190610412565b155b156101cf57604051635274afe760e01b81526001600160a01b038416600482015260240161013c565b606061029183835f610298565b9392505050565b6060814710156102bd5760405163cd78605960e01b815230600482015260240161013c565b5f80856001600160a01b031684866040516102d89190610431565b5f6040518083038185875af1925050503d805f8114610312576040519150601f19603f3d011682016040523d82523d5f602084013e610317565b606091505b5091509150610327868383610331565b9695505050505050565b606082610346576103418261038d565b610291565b815115801561035d57506001600160a01b0384163b155b1561038657604051639996b31560e01b81526001600160a01b038516600482015260240161013c565b5080610291565b80511561039d5780518082602001fd5b604051630a12f52160e11b815260040160405180910390fd5b80356001600160a01b03811681146103cc575f80fd5b919050565b5f80604083850312156103e2575f80fd5b6103eb836103b6565b946020939093013593505050565b5f60208284031215610409575f80fd5b610291826103b6565b5f60208284031215610422575f80fd5b81518015158114610291575f80fd5b5f82515f5b818110156104505760208186018101518583015201610436565b505f92019182525091905056fea264697066735822122079c26acd205d23d89c9e498deb778c10a779ab30e0362ae1d6aa8d127390088f64736f6c63430008180033",
  "linkReferences": {},
  "deployedLinkReferences": {}
}