{
  "_format": "hh-sol-artifact-1",
  "contractName": "InfinitERC20",
  "sourceName": "infinit/tokens/InfinitERC20.sol",
  "abi": [
    {
      "inputs": [
        {
          "internalType": "address",
          "name": "owner",
          "type": "address"
        },
        {
          "internalType": "string",
          "name": "name",
          "type": "string"
        },
        {
          "internalType": "string",
          "name": "symbol",
          "type": "string"
        },
        {
          "internalType": "uint256",
          "name": "maxSupply",
          "type": "uint256"
        },
        {
          "internalType": "uint256",
          "name": "initialSupply",
          "type": "uint256"
        }
      ],
      "stateMutability": "nonpayable",
      "type": "constructor"
    },
    {
      "inputs": [],
      "name": "ECDSAInvalidSignature",
      "type": "error"
    },
    {
      "inputs": [
        {
          "internalType": "uint256",
          "name": "length",
          "type": "uint256"
        }
      ],
      "name": "ECDSAInvalidSignatureLength",
      "type": "error"
    },
    {
      "inputs": [
        {
          "internalType": "bytes32",
          "name": "s",
          "type": "bytes32"
        }
      ],
      "name": "ECDSAInvalidSignatureS",
      "type": "error"
    },
    {
      "inputs": [
        {
          "internalType": "uint256",
          "name": "increasedSupply",
          "type": "uint256"
        },
        {
          "internalType": "uint256",
          "name": "cap",
          "type": "uint256"
        }
      ],
      "name": "ERC20ExceededCap",
      "type": "error"
    },
    {
      "inputs": [
        {
          "internalType": "address",
          "name": "spender",
          "type": "address"
        },
        {
          "internalType": "uint256",
          "name": "allowance",
          "type": "uint256"
        },
        {
          "internalType": "uint256",
          "name": "needed",
          "type": "uint256"
        }
      ],
      "name": "ERC20InsufficientAllowance",
      "type": "error"
    },
    {
      "inputs": [
        {
          "internalType": "address",
          "name": "sender",
          "type": "address"
        },
        {
          "internalType": "uint256",
          "name": "balance",
          "type": "uint256"
        },
        {
          "internalType": "uint256",
          "name": "needed",
          "type": "uint256"
        }
      ],
      "name": "ERC20InsufficientBalance",
      "type": "error"
    },
    {
      "inputs": [
        {
          "internalType": "address",
          "name": "approver",
          "type": "address"
        }
      ],
      "name": "ERC20InvalidApprover",
      "type": "error"
    },
    {
      "inputs": [
        {
          "internalType": "uint256",
          "name": "cap",
          "type": "uint256"
        }
      ],
      "name": "ERC20InvalidCap",
      "type": "error"
    },
    {
      "inputs": [
        {
          "internalType": "address",
          "name": "receiver",
          "type": "address"
        }
      ],
      "name": "ERC20InvalidReceiver",
      "type": "error"
    },
    {
      "inputs": [
        {
          "internalType": "address",
          "name": "sender",
          "type": "address"
        }
      ],
      "name": "ERC20InvalidSender",
      "type": "error"
    },
    {
      "inputs": [
        {
          "internalType": "address",
          "name": "spender",
          "type": "address"
        }
      ],
      "name": "ERC20InvalidSpender",
      "type": "error"
    },
    {
      "inputs": [
        {
          "internalType": "uint256",
          "name": "deadline",
          "type": "uint256"
        }
      ],
      "name": "ERC2612ExpiredSignature",
      "type": "error"
    },
    {
      "inputs": [
        {
          "internalType": "address",
          "name": "signer",
          "type": "address"
        },
        {
          "internalType": "address",
          "name": "owner",
          "type": "address"
        }
      ],
      "name": "ERC2612InvalidSigner",
      "type": "error"
    },
    {
      "inputs": [
        {
          "internalType": "address",
          "name": "account",
          "type": "address"
        },
        {
          "internalType": "uint256",
          "name": "currentNonce",
          "type": "uint256"
        }
      ],
      "name": "InvalidAccountNonce",
      "type": "error"
    },
    {
      "inputs": [],
      "name": "InvalidShortString",
      "type": "error"
    },
    {
      "inputs": [
        {
          "internalType": "address",
          "name": "owner",
          "type": "address"
        }
      ],
      "name": "OwnableInvalidOwner",
      "type": "error"
    },
    {
      "inputs": [
        {
          "internalType": "address",
          "name": "account",
          "type": "address"
        }
      ],
      "name": "OwnableUnauthorizedAccount",
      "type": "error"
    },
    {
      "inputs": [
        {
          "internalType": "string",
          "name": "str",
          "type": "string"
        }
      ],
      "name": "StringTooLong",
      "type": "error"
    },
    {
      "anonymous": false,
      "inputs": [
        {
          "indexed": true,
          "internalType": "address",
          "name": "owner",
          "type": "address"
        },
        {
          "indexed": true,
          "internalType": "address",
          "name": "spender",
          "type": "address"
        },
        {
          "indexed": false,
          "internalType": "uint256",
          "name": "value",
          "type": "uint256"
        }
      ],
      "name": "Approval",
      "type": "event"
    },
    {
      "anonymous": false,
      "inputs": [],
      "name": "EIP712DomainChanged",
      "type": "event"
    },
    {
      "anonymous": false,
      "inputs": [
        {
          "indexed": true,
          "internalType": "address",
          "name": "previousOwner",
          "type": "address"
        },
        {
          "indexed": true,
          "internalType": "address",
          "name": "newOwner",
          "type": "address"
        }
      ],
      "name": "OwnershipTransferred",
      "type": "event"
    },
    {
      "anonymous": false,
      "inputs": [
        {
          "indexed": true,
          "internalType": "address",
          "name": "from",
          "type": "address"
        },
        {
          "indexed": true,
          "internalType": "address",
          "name": "to",
          "type": "address"
        },
        {
          "indexed": false,
          "internalType": "uint256",
          "name": "value",
          "type": "uint256"
        }
      ],
      "name": "Transfer",
      "type": "event"
    },
    {
      "inputs": [],
      "name": "DOMAIN_SEPARATOR",
      "outputs": [
        {
          "internalType": "bytes32",
          "name": "",
          "type": "bytes32"
        }
      ],
      "stateMutability": "view",
      "type": "function"
    },
    {
      "inputs": [
        {
          "internalType": "address",
          "name": "owner",
          "type": "address"
        },
        {
          "internalType": "address",
          "name": "spender",
          "type": "address"
        }
      ],
      "name": "allowance",
      "outputs": [
        {
          "internalType": "uint256",
          "name": "",
          "type": "uint256"
        }
      ],
      "stateMutability": "view",
      "type": "function"
    },
    {
      "inputs": [
        {
          "internalType": "address",
          "name": "spender",
          "type": "address"
        },
        {
          "internalType": "uint256",
          "name": "value",
          "type": "uint256"
        }
      ],
      "name": "approve",
      "outputs": [
        {
          "internalType": "bool",
          "name": "",
          "type": "bool"
        }
      ],
      "stateMutability": "nonpayable",
      "type": "function"
    },
    {
      "inputs": [
        {
          "internalType": "address",
          "name": "account",
          "type": "address"
        }
      ],
      "name": "balanceOf",
      "outputs": [
        {
          "internalType": "uint256",
          "name": "",
          "type": "uint256"
        }
      ],
      "stateMutability": "view",
      "type": "function"
    },
    {
      "inputs": [],
      "name": "cap",
      "outputs": [
        {
          "internalType": "uint256",
          "name": "",
          "type": "uint256"
        }
      ],
      "stateMutability": "view",
      "type": "function"
    },
    {
      "inputs": [],
      "name": "decimals",
      "outputs": [
        {
          "internalType": "uint8",
          "name": "",
          "type": "uint8"
        }
      ],
      "stateMutability": "view",
      "type": "function"
    },
    {
      "inputs": [],
      "name": "eip712Domain",
      "outputs": [
        {
          "internalType": "bytes1",
          "name": "fields",
          "type": "bytes1"
        },
        {
          "internalType": "string",
          "name": "name",
          "type": "string"
        },
        {
          "internalType": "string",
          "name": "version",
          "type": "string"
        },
        {
          "internalType": "uint256",
          "name": "chainId",
          "type": "uint256"
        },
        {
          "internalType": "address",
          "name": "verifyingContract",
          "type": "address"
        },
        {
          "internalType": "bytes32",
          "name": "salt",
          "type": "bytes32"
        },
        {
          "internalType": "uint256[]",
          "name": "extensions",
          "type": "uint256[]"
        }
      ],
      "stateMutability": "view",
      "type": "function"
    },
    {
      "inputs": [
        {
          "internalType": "address",
          "name": "account",
          "type": "address"
        },
        {
          "internalType": "uint256",
          "name": "amount",
          "type": "uint256"
        }
      ],
      "name": "mint",
      "outputs": [
        {
          "internalType": "bool",
          "name": "",
          "type": "bool"
        }
      ],
      "stateMutability": "nonpayable",
      "type": "function"
    },
    {
      "inputs": [],
      "name": "name",
      "outputs": [
        {
          "internalType": "string",
          "name": "",
          "type": "string"
        }
      ],
      "stateMutability": "view",
      "type": "function"
    },
    {
      "inputs": [
        {
          "internalType": "address",
          "name": "owner",
          "type": "address"
        }
      ],
      "name": "nonces",
      "outputs": [
        {
          "internalType": "uint256",
          "name": "",
          "type": "uint256"
        }
      ],
      "stateMutability": "view",
      "type": "function"
    },
    {
      "inputs": [],
      "name": "owner",
      "outputs": [
        {
          "internalType": "address",
          "name": "",
          "type": "address"
        }
      ],
      "stateMutability": "view",
      "type": "function"
    },
    {
      "inputs": [
        {
          "internalType": "address",
          "name": "owner",
          "type": "address"
        },
        {
          "internalType": "address",
          "name": "spender",
          "type": "address"
        },
        {
          "internalType": "uint256",
          "name": "value",
          "type": "uint256"
        },
        {
          "internalType": "uint256",
          "name": "deadline",
          "type": "uint256"
        },
        {
          "internalType": "uint8",
          "name": "v",
          "type": "uint8"
        },
        {
          "internalType": "bytes32",
          "name": "r",
          "type": "bytes32"
        },
        {
          "internalType": "bytes32",
          "name": "s",
          "type": "bytes32"
        }
      ],
      "name": "permit",
      "outputs": [],
      "stateMutability": "nonpayable",
      "type": "function"
    },
    {
      "inputs": [],
      "name": "renounceOwnership",
      "outputs": [],
      "stateMutability": "nonpayable",
      "type": "function"
    },
    {
      "inputs": [],
      "name": "symbol",
      "outputs": [
        {
          "internalType": "string",
          "name": "",
          "type": "string"
        }
      ],
      "stateMutability": "view",
      "type": "function"
    },
    {
      "inputs": [],
      "name": "totalSupply",
      "outputs": [
        {
          "internalType": "uint256",
          "name": "",
          "type": "uint256"
        }
      ],
      "stateMutability": "view",
      "type": "function"
    },
    {
      "inputs": [
        {
          "internalType": "address",
          "name": "to",
          "type": "address"
        },
        {
          "internalType": "uint256",
          "name": "value",
          "type": "uint256"
        }
      ],
      "name": "transfer",
      "outputs": [
        {
          "internalType": "bool",
          "name": "",
          "type": "bool"
        }
      ],
      "stateMutability": "nonpayable",
      "type": "function"
    },
    {
      "inputs": [
        {
          "internalType": "address",
          "name": "from",
          "type": "address"
        },
        {
          "internalType": "address",
          "name": "to",
          "type": "address"
        },
        {
          "internalType": "uint256",
          "name": "value",
          "type": "uint256"
        }
      ],
      "name": "transferFrom",
      "outputs": [
        {
          "internalType": "bool",
          "name": "",
          "type": "bool"
        }
      ],
      "stateMutability": "nonpayable",
      "type": "function"
    },
    {
      "inputs": [
        {
          "internalType": "address",
          "name": "newOwner",
          "type": "address"
        }
      ],
      "name": "transferOwnership",
      "outputs": [],
      "stateMutability": "nonpayable",
      "type": "function"
    }
  ],
  "bytecode": "0x61018060405234801562000011575f80fd5b50604051620018d2380380620018d283398101604081905262000034916200051a565b6040805180820190915260018152603160f81b6020820152849081908482878a6001600160a01b0381166200008357604051631e4fbdf760e01b81525f60048201526024015b60405180910390fd5b6200008e81620001a4565b5060046200009d838262000632565b506005620000ac828262000632565b505050805f03620000d35760405163392e1e2760e01b81525f60048201526024016200007a565b608052620000e3826006620001f3565b61014052620000f4816007620001f3565b61016052815160208084019190912061010052815190820120610120524660c052620001836101005161012051604080517f8b73c3c69bb8fe3d512ecc4cf759cc79239f7b179b0ffacaa9a75d522b39400f60208201529081019290925260608201524660808201523060a08201525f9060c00160405160208183030381529060405280519060200120905090565b60a05250503060e052506200019985826200022b565b505050505062000776565b5f80546001600160a01b038381166001600160a01b0319831681178455604051919092169283917f8be0079c531659141344cd1fd0a4f28419497f9722a3daafe3b4186f6b6457e09190a35050565b5f60208351101562000212576200020a8362000267565b905062000225565b816200021f848262000632565b5060ff90505b92915050565b6001600160a01b038216620002565760405163ec442f0560e01b81525f60048201526024016200007a565b620002635f8383620002a9565b5050565b5f80829050601f8151111562000294578260405163305a27a960e01b81526004016200007a9190620006fe565b8051620002a18262000732565b179392505050565b620002b6838383620002bb565b505050565b620002c883838362000325565b6001600160a01b038316620002b6575f620002e260805190565b90505f620002ef60035490565b9050818111156200031e5760405163279e7e1560e21b815260048101829052602481018390526044016200007a565b5050505050565b6001600160a01b03831662000353578060035f82825462000347919062000756565b90915550620003c59050565b6001600160a01b0383165f9081526001602052604090205481811015620003a75760405163391434e360e21b81526001600160a01b038516600482015260248101829052604481018390526064016200007a565b6001600160a01b0384165f9081526001602052604090209082900390555b6001600160a01b038216620003e35760038054829003905562000401565b6001600160a01b0382165f9081526001602052604090208054820190555b816001600160a01b0316836001600160a01b03167fddf252ad1be2c89b69c2b068fc378daa952ba7f163c4a11628f55a4df523b3ef836040516200044791815260200190565b60405180910390a3505050565b634e487b7160e01b5f52604160045260245ffd5b5f5b83811015620004845781810151838201526020016200046a565b50505f910152565b5f82601f8301126200049c575f80fd5b81516001600160401b0380821115620004b957620004b962000454565b604051601f8301601f19908116603f01168101908282118183101715620004e457620004e462000454565b81604052838152866020858801011115620004fd575f80fd5b6200051084602083016020890162000468565b9695505050505050565b5f805f805f60a086880312156200052f575f80fd5b85516001600160a01b038116811462000546575f80fd5b60208701519095506001600160401b038082111562000563575f80fd5b6200057189838a016200048c565b9550604088015191508082111562000587575f80fd5b5062000596888289016200048c565b606088015160809098015196999598509695949350505050565b600181811c90821680620005c557607f821691505b602082108103620005e457634e487b7160e01b5f52602260045260245ffd5b50919050565b601f821115620002b657805f5260205f20601f840160051c81016020851015620006115750805b601f840160051c820191505b818110156200031e575f81556001016200061d565b81516001600160401b038111156200064e576200064e62000454565b62000666816200065f8454620005b0565b84620005ea565b602080601f8311600181146200069c575f8415620006845750858301515b5f19600386901b1c1916600185901b178555620006f6565b5f85815260208120601f198616915b82811015620006cc57888601518255948401946001909101908401620006ab565b5085821015620006ea57878501515f19600388901b60f8161c191681555b505060018460011b0185555b505050505050565b602081525f82518060208401526200071e81604085016020870162000468565b601f01601f19169190910160400192915050565b80516020808301519190811015620005e4575f1960209190910360031b1b16919050565b808201808211156200022557634e487b7160e01b5f52601160045260245ffd5b60805160a05160c05160e051610100516101205161014051610160516110f9620007d95f395f6108b401525f61088701525f61077d01525f61075501525f6106b001525f6106da01525f61070401525f818161018c0152610c5601526110f95ff3fe608060405234801561000f575f80fd5b5060043610610111575f3560e01c8063715018a61161009e57806395d89b411161006e57806395d89b4114610245578063a9059cbb1461024d578063d505accf14610260578063dd62ed3e14610273578063f2fde38b146102ab575f80fd5b8063715018a6146101f35780637ecebe00146101fd57806384b0196e146102105780638da5cb5b1461022b575f80fd5b8063313ce567116100e4578063313ce5671461017b578063355274ea1461018a5780633644e515146101b057806340c10f19146101b857806370a08231146101cb575f80fd5b806306fdde0314610115578063095ea7b31461013357806318160ddd1461015657806323b872dd14610168575b5f80fd5b61011d6102be565b60405161012a9190610e75565b60405180910390f35b610146610141366004610ea9565b61034e565b604051901515815260200161012a565b6003545b60405190815260200161012a565b610146610176366004610ed1565b610367565b6040516012815260200161012a565b7f000000000000000000000000000000000000000000000000000000000000000061015a565b61015a61038a565b6101466101c6366004610ea9565b610398565b61015a6101d9366004610f0a565b6001600160a01b03165f9081526001602052604090205490565b6101fb6103b4565b005b61015a61020b366004610f0a565b6103c7565b6102186103e4565b60405161012a9796959493929190610f23565b5f546040516001600160a01b03909116815260200161012a565b61011d610426565b61014661025b366004610ea9565b610435565b6101fb61026e366004610fba565b610442565b61015a610281366004611027565b6001600160a01b039182165f90815260026020908152604080832093909416825291909152205490565b6101fb6102b9366004610f0a565b61057d565b6060600480546102cd90611058565b80601f01602080910402602001604051908101604052809291908181526020018280546102f990611058565b80156103445780601f1061031b57610100808354040283529160200191610344565b820191905f5260205f20905b81548152906001019060200180831161032757829003601f168201915b5050505050905090565b5f3361035b8185856105ba565b60019150505b92915050565b5f336103748582856105cc565b61037f858585610647565b506001949350505050565b5f6103936106a4565b905090565b5f6103a16107cd565b6103ab83836107f9565b50600192915050565b6103bc6107cd565b6103c55f610831565b565b6001600160a01b0381165f90815260086020526040812054610361565b5f6060805f805f60606103f5610880565b6103fd6108ad565b604080515f80825260208201909252600f60f81b9b939a50919850469750309650945092509050565b6060600580546102cd90611058565b5f3361035b818585610647565b8342111561046b5760405163313c898160e11b8152600481018590526024015b60405180910390fd5b5f7f6e71edae12b1b97f4d1f60370fef10105fa2faae0126114a169c64845d6126c98888886104b68c6001600160a01b03165f90815260086020526040902080546001810190915590565b6040805160208101969096526001600160a01b0394851690860152929091166060840152608083015260a082015260c0810186905260e0016040516020818303038152906040528051906020012090505f610510826108da565b90505f61051f82878787610906565b9050896001600160a01b0316816001600160a01b031614610566576040516325c0072360e11b81526001600160a01b0380831660048301528b166024820152604401610462565b6105718a8a8a6105ba565b50505050505050505050565b6105856107cd565b6001600160a01b0381166105ae57604051631e4fbdf760e01b81525f6004820152602401610462565b6105b781610831565b50565b6105c78383836001610932565b505050565b6001600160a01b038381165f908152600260209081526040808320938616835292905220545f198114610641578181101561063357604051637dc7a0d960e11b81526001600160a01b03841660048201526024810182905260448101839052606401610462565b61064184848484035f610932565b50505050565b6001600160a01b03831661067057604051634b637e8f60e11b81525f6004820152602401610462565b6001600160a01b0382166106995760405163ec442f0560e01b81525f6004820152602401610462565b6105c7838383610a04565b5f306001600160a01b037f0000000000000000000000000000000000000000000000000000000000000000161480156106fc57507f000000000000000000000000000000000000000000000000000000000000000046145b1561072657507f000000000000000000000000000000000000000000000000000000000000000090565b610393604080517f8b73c3c69bb8fe3d512ecc4cf759cc79239f7b179b0ffacaa9a75d522b39400f60208201527f0000000000000000000000000000000000000000000000000000000000000000918101919091527f000000000000000000000000000000000000000000000000000000000000000060608201524660808201523060a08201525f9060c00160405160208183030381529060405280519060200120905090565b5f546001600160a01b031633146103c55760405163118cdaa760e01b8152336004820152602401610462565b6001600160a01b0382166108225760405163ec442f0560e01b81525f6004820152602401610462565b61082d5f8383610a04565b5050565b5f80546001600160a01b038381166001600160a01b0319831681178455604051919092169283917f8be0079c531659141344cd1fd0a4f28419497f9722a3daafe3b4186f6b6457e09190a35050565b60606103937f00000000000000000000000000000000000000000000000000000000000000006006610a0f565b60606103937f00000000000000000000000000000000000000000000000000000000000000006007610a0f565b5f6103616108e66106a4565b8360405161190160f01b8152600281019290925260228201526042902090565b5f805f8061091688888888610ab8565b9250925092506109268282610b80565b50909695505050505050565b6001600160a01b03841661095b5760405163e602df0560e01b81525f6004820152602401610462565b6001600160a01b03831661098457604051634a1406b160e11b81525f6004820152602401610462565b6001600160a01b038085165f908152600260209081526040808320938716835292905220829055801561064157826001600160a01b0316846001600160a01b03167f8c5be1e5ebec7d5bd14f71427d1e84f3dd0314c0f7b2291e5b200ac8c7c3b925846040516109f691815260200190565b60405180910390a350505050565b6105c7838383610c38565b606060ff8314610a2957610a2283610ca8565b9050610361565b818054610a3590611058565b80601f0160208091040260200160405190810160405280929190818152602001828054610a6190611058565b8015610aac5780601f10610a8357610100808354040283529160200191610aac565b820191905f5260205f20905b815481529060010190602001808311610a8f57829003601f168201915b50505050509050610361565b5f80807f7fffffffffffffffffffffffffffffff5d576e7357a4501ddfe92f46681b20a0841115610af157505f91506003905082610b76565b604080515f808252602082018084528a905260ff891692820192909252606081018790526080810186905260019060a0016020604051602081039080840390855afa158015610b42573d5f803e3d5ffd5b5050604051601f1901519150506001600160a01b038116610b6d57505f925060019150829050610b76565b92505f91508190505b9450945094915050565b5f826003811115610b9357610b93611090565b03610b9c575050565b6001826003811115610bb057610bb0611090565b03610bce5760405163f645eedf60e01b815260040160405180910390fd5b6002826003811115610be257610be2611090565b03610c035760405163fce698f760e01b815260048101829052602401610462565b6003826003811115610c1757610c17611090565b0361082d576040516335e2f38360e21b815260048101829052602401610462565b610c43838383610ce5565b6001600160a01b0383166105c7576003547f00000000000000000000000000000000000000000000000000000000000000009081811115610ca15760405163279e7e1560e21b81526004810182905260248101839052604401610462565b5050505050565b60605f610cb483610e0b565b6040805160208082528183019092529192505f91906020820181803683375050509182525060208101929092525090565b6001600160a01b038316610d0f578060035f828254610d0491906110a4565b90915550610d7f9050565b6001600160a01b0383165f9081526001602052604090205481811015610d615760405163391434e360e21b81526001600160a01b03851660048201526024810182905260448101839052606401610462565b6001600160a01b0384165f9081526001602052604090209082900390555b6001600160a01b038216610d9b57600380548290039055610db9565b6001600160a01b0382165f9081526001602052604090208054820190555b816001600160a01b0316836001600160a01b03167fddf252ad1be2c89b69c2b068fc378daa952ba7f163c4a11628f55a4df523b3ef83604051610dfe91815260200190565b60405180910390a3505050565b5f60ff8216601f81111561036157604051632cd44ac360e21b815260040160405180910390fd5b5f81518084525f5b81811015610e5657602081850181015186830182015201610e3a565b505f602082860101526020601f19601f83011685010191505092915050565b602081525f610e876020830184610e32565b9392505050565b80356001600160a01b0381168114610ea4575f80fd5b919050565b5f8060408385031215610eba575f80fd5b610ec383610e8e565b946020939093013593505050565b5f805f60608486031215610ee3575f80fd5b610eec84610e8e565b9250610efa60208501610e8e565b9150604084013590509250925092565b5f60208284031215610f1a575f80fd5b610e8782610e8e565b60ff60f81b881681525f602060e06020840152610f4360e084018a610e32565b8381036040850152610f55818a610e32565b606085018990526001600160a01b038816608086015260a0850187905284810360c0860152855180825260208088019350909101905f5b81811015610fa857835183529284019291840191600101610f8c565b50909c9b505050505050505050505050565b5f805f805f805f60e0888a031215610fd0575f80fd5b610fd988610e8e565b9650610fe760208901610e8e565b95506040880135945060608801359350608088013560ff8116811461100a575f80fd5b9699959850939692959460a0840135945060c09093013592915050565b5f8060408385031215611038575f80fd5b61104183610e8e565b915061104f60208401610e8e565b90509250929050565b600181811c9082168061106c57607f821691505b60208210810361108a57634e487b7160e01b5f52602260045260245ffd5b50919050565b634e487b7160e01b5f52602160045260245ffd5b8082018082111561036157634e487b7160e01b5f52601160045260245ffdfea2646970667358221220648b45a95e600dd8e28f32f50aa451defd0c87a79675d6269f0ba7379a58f99f64736f6c63430008180033",
  "linkReferences": {},
  "deployedLinkReferences": {}
}