{
  "_format": "hh-sol-artifact-1",
  "contractName": "AccumulativeMerkleDistributor",
  "sourceName": "infinit/airdrop/AccumulativeMerkleDistributor.sol",
  "abi": [
    {
      "inputs": [
        {
          "internalType": "address",
          "name": "_token",
          "type": "address"
        }
      ],
      "stateMutability": "nonpayable",
      "type": "constructor"
    },
    {
      "inputs": [
        {
          "internalType": "address",
          "name": "target",
          "type": "address"
        }
      ],
      "name": "AddressEmptyCode",
      "type": "error"
    },
    {
      "inputs": [
        {
          "internalType": "address",
          "name": "account",
          "type": "address"
        }
      ],
      "name": "AddressInsufficientBalance",
      "type": "error"
    },
    {
      "inputs": [
        {
          "internalType": "address",
          "name": "implementation",
          "type": "address"
        }
      ],
      "name": "ERC1967InvalidImplementation",
      "type": "error"
    },
    {
      "inputs": [],
      "name": "ERC1967NonPayable",
      "type": "error"
    },
    {
      "inputs": [],
      "name": "FailedInnerCall",
      "type": "error"
    },
    {
      "inputs": [],
      "name": "InvalidMerkleProof",
      "type": "error"
    },
    {
      "inputs": [
        {
          "internalType": "address",
          "name": "token",
          "type": "address"
        }
      ],
      "name": "SafeERC20FailedOperation",
      "type": "error"
    },
    {
      "inputs": [],
      "name": "UUPSUnauthorizedCallContext",
      "type": "error"
    },
    {
      "inputs": [
        {
          "internalType": "bytes32",
          "name": "slot",
          "type": "bytes32"
        }
      ],
      "name": "UUPSUnsupportedProxiableUUID",
      "type": "error"
    },
    {
      "anonymous": false,
      "inputs": [
        {
          "indexed": true,
          "internalType": "address",
          "name": "user",
          "type": "address"
        },
        {
          "indexed": true,
          "internalType": "address",
          "name": "receiver",
          "type": "address"
        },
        {
          "indexed": false,
          "internalType": "uint256",
          "name": "amount",
          "type": "uint256"
        }
      ],
      "name": "Claimed",
      "type": "event"
    },
    {
      "anonymous": false,
      "inputs": [
        {
          "indexed": false,
          "internalType": "uint8",
          "name": "version",
          "type": "uint8"
        }
      ],
      "name": "Initialized",
      "type": "event"
    },
    {
      "anonymous": false,
      "inputs": [
        {
          "indexed": true,
          "internalType": "address",
          "name": "previousOwner",
          "type": "address"
        },
        {
          "indexed": true,
          "internalType": "address",
          "name": "newOwner",
          "type": "address"
        }
      ],
      "name": "OwnershipTransferred",
      "type": "event"
    },
    {
      "anonymous": false,
      "inputs": [
        {
          "indexed": true,
          "internalType": "bytes32",
          "name": "merkleRoot",
          "type": "bytes32"
        }
      ],
      "name": "SetMerkleRoot",
      "type": "event"
    },
    {
      "anonymous": false,
      "inputs": [
        {
          "indexed": true,
          "internalType": "address",
          "name": "implementation",
          "type": "address"
        }
      ],
      "name": "Upgraded",
      "type": "event"
    },
    {
      "anonymous": false,
      "inputs": [
        {
          "indexed": true,
          "internalType": "address",
          "name": "user",
          "type": "address"
        },
        {
          "indexed": false,
          "internalType": "uint256",
          "name": "amountClaimable",
          "type": "uint256"
        }
      ],
      "name": "Verified",
      "type": "event"
    },
    {
      "inputs": [],
      "name": "UPGRADE_INTERFACE_VERSION",
      "outputs": [
        {
          "internalType": "string",
          "name": "",
          "type": "string"
        }
      ],
      "stateMutability": "view",
      "type": "function"
    },
    {
      "inputs": [
        {
          "internalType": "address",
          "name": "receiver",
          "type": "address"
        },
        {
          "internalType": "uint256",
          "name": "totalAccrued",
          "type": "uint256"
        },
        {
          "internalType": "bytes32[]",
          "name": "proof",
          "type": "bytes32[]"
        }
      ],
      "name": "claim",
      "outputs": [
        {
          "internalType": "uint256",
          "name": "amountOut",
          "type": "uint256"
        }
      ],
      "stateMutability": "nonpayable",
      "type": "function"
    },
    {
      "inputs": [],
      "name": "claimOwnership",
      "outputs": [],
      "stateMutability": "nonpayable",
      "type": "function"
    },
    {
      "inputs": [
        {
          "internalType": "address",
          "name": "receiver",
          "type": "address"
        }
      ],
      "name": "claimVerified",
      "outputs": [
        {
          "internalType": "uint256",
          "name": "amountOut",
          "type": "uint256"
        }
      ],
      "stateMutability": "nonpayable",
      "type": "function"
    },
    {
      "inputs": [
        {
          "internalType": "address",
          "name": "",
          "type": "address"
        }
      ],
      "name": "claimed",
      "outputs": [
        {
          "internalType": "uint256",
          "name": "",
          "type": "uint256"
        }
      ],
      "stateMutability": "view",
      "type": "function"
    },
    {
      "inputs": [],
      "name": "initialize",
      "outputs": [],
      "stateMutability": "nonpayable",
      "type": "function"
    },
    {
      "inputs": [],
      "name": "merkleRoot",
      "outputs": [
        {
          "internalType": "bytes32",
          "name": "",
          "type": "bytes32"
        }
      ],
      "stateMutability": "view",
      "type": "function"
    },
    {
      "inputs": [],
      "name": "owner",
      "outputs": [
        {
          "internalType": "address",
          "name": "",
          "type": "address"
        }
      ],
      "stateMutability": "view",
      "type": "function"
    },
    {
      "inputs": [],
      "name": "pendingOwner",
      "outputs": [
        {
          "internalType": "address",
          "name": "",
          "type": "address"
        }
      ],
      "stateMutability": "view",
      "type": "function"
    },
    {
      "inputs": [],
      "name": "proxiableUUID",
      "outputs": [
        {
          "internalType": "bytes32",
          "name": "",
          "type": "bytes32"
        }
      ],
      "stateMutability": "view",
      "type": "function"
    },
    {
      "inputs": [
        {
          "internalType": "bytes32",
          "name": "newMerkleRoot",
          "type": "bytes32"
        }
      ],
      "name": "setMerkleRoot",
      "outputs": [],
      "stateMutability": "payable",
      "type": "function"
    },
    {
      "inputs": [],
      "name": "token",
      "outputs": [
        {
          "internalType": "address",
          "name": "",
          "type": "address"
        }
      ],
      "stateMutability": "view",
      "type": "function"
    },
    {
      "inputs": [
        {
          "internalType": "address",
          "name": "newOwner",
          "type": "address"
        },
        {
          "internalType": "bool",
          "name": "direct",
          "type": "bool"
        },
        {
          "internalType": "bool",
          "name": "renounce",
          "type": "bool"
        }
      ],
      "name": "transferOwnership",
      "outputs": [],
      "stateMutability": "nonpayable",
      "type": "function"
    },
    {
      "inputs": [
        {
          "internalType": "address",
          "name": "newImplementation",
          "type": "address"
        },
        {
          "internalType": "bytes",
          "name": "data",
          "type": "bytes"
        }
      ],
      "name": "upgradeToAndCall",
      "outputs": [],
      "stateMutability": "payable",
      "type": "function"
    },
    {
      "inputs": [
        {
          "internalType": "address",
          "name": "",
          "type": "address"
        }
      ],
      "name": "verified",
      "outputs": [
        {
          "internalType": "uint256",
          "name": "",
          "type": "uint256"
        }
      ],
      "stateMutability": "view",
      "type": "function"
    },
    {
      "inputs": [
        {
          "internalType": "address",
          "name": "user",
          "type": "address"
        },
        {
          "internalType": "uint256",
          "name": "totalAccrued",
          "type": "uint256"
        },
        {
          "internalType": "bytes32[]",
          "name": "proof",
          "type": "bytes32[]"
        }
      ],
      "name": "verify",
      "outputs": [
        {
          "internalType": "uint256",
          "name": "amountClaimable",
          "type": "uint256"
        }
      ],
      "stateMutability": "nonpayable",
      "type": "function"
    },
    {
      "stateMutability": "payable",
      "type": "receive"
    }
  ],
  "bytecode": "0x60c060405230608052348015610013575f80fd5b50604051620015803803806200158083398101604081905261003491610169565b600154600160a81b900460ff161580801561005a575060018054600160a01b900460ff16105b8061007a5750303b15801561007a575060018054600160a01b900460ff16145b6100e15760405162461bcd60e51b815260206004820152602e60248201527f496e697469616c697a61626c653a20636f6e747261637420697320616c72656160448201526d191e481a5b9a5d1a585b1a5e995960921b606482015260840160405180910390fd5b6001805460ff60a01b1916600160a01b179055801561010e576001805460ff60a81b1916600160a81b1790555b6001600160a01b03821660a0528015610162576001805460ff60a81b191681556040519081527f7f26b83ff96e1f2b6a682f133852f6798a09c465da95921460cefb38474024989060200160405180910390a15b5050610196565b5f60208284031215610179575f80fd5b81516001600160a01b038116811461018f575f80fd5b9392505050565b60805160a0516113ac620001d45f395f81816102fe015281816104a2015261089b01525f8181610a7201528181610a9b0152610bfd01526113ac5ff3fe6080604052600436106100f2575f3560e01c80638129fc1c11610087578063c884ef8311610057578063c884ef8314610284578063cf2f45e9146102af578063e30c3978146102ce578063fc0c546a146102ed575f80fd5b80638129fc1c146101de5780638be0861e146101f25780638da5cb5b14610211578063ad3cb1cc14610247575f80fd5b80634e71e0c8116100c25780634e71e0c8146101905780634f1ef286146101a457806352d1902d146101b75780637cb64759146101cb575f80fd5b8063078dfbe7146100fd5780630db065f41461011e5780632eb4a7ab1461015c5780633d13f87414610171575f80fd5b366100f957005b5f80fd5b348015610108575f80fd5b5061011c610117366004611084565b610320565b005b348015610129575f80fd5b506101496101383660046110ca565b60346020525f908152604090205481565b6040519081526020015b60405180910390f35b348015610167575f80fd5b5061014960325481565b34801561017c575f80fd5b5061014961018b3660046110e3565b610434565b34801561019b575f80fd5b5061011c61051e565b61011c6101b236600461117a565b6105d9565b3480156101c2575f80fd5b506101496105f8565b61011c6101d9366004611236565b610613565b3480156101e9575f80fd5b5061011c61066e565b3480156101fd575f80fd5b5061014961020c3660046110e3565b610796565b34801561021c575f80fd5b505f5461022f906001600160a01b031681565b6040516001600160a01b039091168152602001610153565b348015610252575f80fd5b50610277604051806040016040528060058152602001640352e302e360dc1b81525081565b604051610153919061126f565b34801561028f575f80fd5b5061014961029e3660046110ca565b60336020525f908152604090205481565b3480156102ba575f80fd5b506101496102c93660046110ca565b610842565b3480156102d9575f80fd5b5060015461022f906001600160a01b031681565b3480156102f8575f80fd5b5061022f7f000000000000000000000000000000000000000000000000000000000000000081565b5f546001600160a01b031633146103525760405162461bcd60e51b8152600401610349906112a1565b60405180910390fd5b8115610413576001600160a01b03831615158061036c5750805b6103b05760405162461bcd60e51b81526020600482015260156024820152744f776e61626c653a207a65726f206164647265737360581b6044820152606401610349565b5f80546040516001600160a01b03808716939216917f8be0079c531659141344cd1fd0a4f28419497f9722a3daafe3b4186f6b6457e091a35f80546001600160a01b0385166001600160a01b031991821617909155600180549091169055505050565b600180546001600160a01b0319166001600160a01b0385161790555b505050565b5f3361044281868686610916565b61045f5760405163582f497d60e11b815260040160405180910390fd5b6001600160a01b0381165f9081526033602052604090205461048190866112d6565b6001600160a01b0382165f90815260336020526040902086905591506104c87f000000000000000000000000000000000000000000000000000000000000000087846109a2565b856001600160a01b0316816001600160a01b03167ff7a40077ff7a04c7e61f6f26fb13774259ddf1b6bce9ecf26a8276cdd39926838460405161050d91815260200190565b60405180910390a350949350505050565b6001546001600160a01b03163381146105795760405162461bcd60e51b815260206004820181905260248201527f4f776e61626c653a2063616c6c657220213d2070656e64696e67206f776e65726044820152606401610349565b5f80546040516001600160a01b03808516939216917f8be0079c531659141344cd1fd0a4f28419497f9722a3daafe3b4186f6b6457e091a35f80546001600160a01b039092166001600160a01b0319928316179055600180549091169055565b6105e1610a67565b6105ea82610b0d565b6105f48282610b36565b5050565b5f610601610bf2565b505f8051602061135783398151915290565b5f546001600160a01b0316331461063c5760405162461bcd60e51b8152600401610349906112a1565b603281905560405181907f914960aef5e033ce5cae8a7992d4b7a6f0f9741227b66acb67c605b7019f8a46905f90a250565b600154600160a81b900460ff1615808015610694575060018054600160a01b900460ff16105b806106b45750303b1580156106b4575060018054600160a01b900460ff16145b6107175760405162461bcd60e51b815260206004820152602e60248201527f496e697469616c697a61626c653a20636f6e747261637420697320616c72656160448201526d191e481a5b9a5d1a585b1a5e995960921b6064820152608401610349565b6001805460ff60a01b1916600160a01b1790558015610744576001805460ff60a81b1916600160a81b1790555b61074c610c3b565b8015610793576001805460ff60a81b191681556040519081527f7f26b83ff96e1f2b6a682f133852f6798a09c465da95921460cefb38474024989060200160405180910390a15b50565b5f6107a385858585610916565b6107c05760405163582f497d60e11b815260040160405180910390fd5b6001600160a01b0385165f908152603360205260409020546107e290856112d6565b6001600160a01b0386165f818152603460205260409081902087905551919250907f7c4bd613345b3aec2140d4c4c96782cda06d72b1a593fbb20a72300354f4c336906108329084815260200190565b60405180910390a2949350505050565b335f81815260346020908152604080832054603390925282205491929180821161087057505f949350505050565b61087a81836112d6565b6001600160a01b0384165f90815260336020526040902083905593506108c17f000000000000000000000000000000000000000000000000000000000000000086866109a2565b846001600160a01b0316836001600160a01b03167ff7a40077ff7a04c7e61f6f26fb13774259ddf1b6bce9ecf26a8276cdd39926838660405161090691815260200190565b60405180910390a3505050919050565b6040516bffffffffffffffffffffffff19606086901b166020820152603481018490525f9081906054016040516020818303038152906040528051906020012090506109988484808060200260200160405190810160405280939291908181526020018383602002808284375f92019190915250506032549150849050610cbb565b9695505050505050565b805f036109ae57505050565b6001600160a01b038316610a53575f826001600160a01b0316826040515f6040518083038185875af1925050503d805f8114610a05576040519150601f19603f3d011682016040523d82523d5f602084013e610a0a565b606091505b5050905080610a4d5760405162461bcd60e51b815260206004820152600f60248201526e195d1a081cd95b990819985a5b1959608a1b6044820152606401610349565b50505050565b61042f6001600160a01b0384168383610cd2565b306001600160a01b037f0000000000000000000000000000000000000000000000000000000000000000161480610aed57507f00000000000000000000000000000000000000000000000000000000000000006001600160a01b0316610ae15f80516020611357833981519152546001600160a01b031690565b6001600160a01b031614155b15610b0b5760405163703e46dd60e11b815260040160405180910390fd5b565b5f546001600160a01b031633146107935760405162461bcd60e51b8152600401610349906112a1565b816001600160a01b03166352d1902d6040518163ffffffff1660e01b8152600401602060405180830381865afa925050508015610b90575060408051601f3d908101601f19168201909252610b8d918101906112f5565b60015b610bb857604051634c9c8ce360e01b81526001600160a01b0383166004820152602401610349565b5f805160206113578339815191528114610be857604051632a87526960e21b815260048101829052602401610349565b61042f8383610d24565b306001600160a01b037f00000000000000000000000000000000000000000000000000000000000000001614610b0b5760405163703e46dd60e11b815260040160405180910390fd5b600154600160a81b900460ff16610ca85760405162461bcd60e51b815260206004820152602b60248201527f496e697469616c697a61626c653a20636f6e7472616374206973206e6f74206960448201526a6e697469616c697a696e6760a81b6064820152608401610349565b5f80546001600160a01b03191633179055565b5f82610cc78584610d79565b1490505b9392505050565b604080516001600160a01b038416602482015260448082018490528251808303909101815260649091019091526020810180516001600160e01b031663a9059cbb60e01b17905261042f908490610dbd565b610d2d82610e1e565b6040516001600160a01b038316907fbc7cd75a20ee27fd9adebab32041f755214dbc6bffa90cc0225b39da2e5c2d3b905f90a2805115610d715761042f8282610e81565b6105f4610ef3565b5f81815b8451811015610db357610da982868381518110610d9c57610d9c61130c565b6020026020010151610f12565b9150600101610d7d565b5090505b92915050565b5f610dd16001600160a01b03841683610f3b565b905080515f14158015610df5575080806020019051810190610df39190611320565b155b1561042f57604051635274afe760e01b81526001600160a01b0384166004820152602401610349565b806001600160a01b03163b5f03610e5357604051634c9c8ce360e01b81526001600160a01b0382166004820152602401610349565b5f8051602061135783398151915280546001600160a01b0319166001600160a01b0392909216919091179055565b60605f80846001600160a01b031684604051610e9d919061133b565b5f60405180830381855af49150503d805f8114610ed5576040519150601f19603f3d011682016040523d82523d5f602084013e610eda565b606091505b5091509150610eea858383610f48565b95945050505050565b3415610b0b5760405163b398979f60e01b815260040160405180910390fd5b5f818310610f2c575f828152602084905260409020610ccb565b505f9182526020526040902090565b6060610ccb83835f610fa4565b606082610f5d57610f5882611033565b610ccb565b8151158015610f7457506001600160a01b0384163b155b15610f9d57604051639996b31560e01b81526001600160a01b0385166004820152602401610349565b5080610ccb565b606081471015610fc95760405163cd78605960e01b8152306004820152602401610349565b5f80856001600160a01b03168486604051610fe4919061133b565b5f6040518083038185875af1925050503d805f811461101e576040519150601f19603f3d011682016040523d82523d5f602084013e611023565b606091505b5091509150610998868383610f48565b8051156110435780518082602001fd5b604051630a12f52160e11b815260040160405180910390fd5b80356001600160a01b0381168114611072575f80fd5b919050565b8015158114610793575f80fd5b5f805f60608486031215611096575f80fd5b61109f8461105c565b925060208401356110af81611077565b915060408401356110bf81611077565b809150509250925092565b5f602082840312156110da575f80fd5b610ccb8261105c565b5f805f80606085870312156110f6575f80fd5b6110ff8561105c565b935060208501359250604085013567ffffffffffffffff80821115611122575f80fd5b818701915087601f830112611135575f80fd5b813581811115611143575f80fd5b8860208260051b8501011115611157575f80fd5b95989497505060200194505050565b634e487b7160e01b5f52604160045260245ffd5b5f806040838503121561118b575f80fd5b6111948361105c565b9150602083013567ffffffffffffffff808211156111b0575f80fd5b818501915085601f8301126111c3575f80fd5b8135818111156111d5576111d5611166565b604051601f8201601f19908116603f011681019083821181831017156111fd576111fd611166565b81604052828152886020848701011115611215575f80fd5b826020860160208301375f6020848301015280955050505050509250929050565b5f60208284031215611246575f80fd5b5035919050565b5f5b8381101561126757818101518382015260200161124f565b50505f910152565b602081525f825180602084015261128d81604085016020870161124d565b601f01601f19169190910160400192915050565b6020808252818101527f4f776e61626c653a2063616c6c6572206973206e6f7420746865206f776e6572604082015260600190565b81810381811115610db757634e487b7160e01b5f52601160045260245ffd5b5f60208284031215611305575f80fd5b5051919050565b634e487b7160e01b5f52603260045260245ffd5b5f60208284031215611330575f80fd5b8151610ccb81611077565b5f825161134c81846020870161124d565b919091019291505056fe360894a13ba1a3210667c828492db98dca3e2076cc3735a920a3ca505d382bbca2646970667358221220df0542828025408cc7f5b78cedf6f6ff5c480a1204125e91ca047511f7fc93bf64736f6c63430008180033",
  "linkReferences": {},
  "deployedLinkReferences": {}
}